{
    "contractName": "PrinterMarketplace",
    "abi": [
        {
            "inputs": [],
            "stateMutability": "nonpayable",
            "type": "constructor"
        },
        {
            "anonymous": false,
            "inputs": [
                {
                    "indexed": false,
                    "internalType": "uint256",
                    "name": "id",
                    "type": "uint256"
                }
            ],
            "name": "RequestCreated",
            "type": "event"
        },
        {
            "inputs": [
                {
                    "internalType": "string",
                    "name": "_fileHash",
                    "type": "string"
                }
            ],
            "name": "createRequest",
            "outputs": [],
            "stateMutability": "payable",
            "type": "function"
        },
        {
            "inputs": [
                {
                    "internalType": "uint256",
                    "name": "",
                    "type": "uint256"
                }
            ],
            "name": "fileHash",
            "outputs": [
                {
                    "internalType": "string",
                    "name": "",
                    "type": "string"
                }
            ],
            "stateMutability": "view",
            "type": "function"
        },
        {
            "inputs": [],
            "name": "get",
            "outputs": [
                {
                    "internalType": "string",
                    "name": "",
                    "type": "string"
                }
            ],
            "stateMutability": "view",
            "type": "function"
        },
        {
            "inputs": [],
            "name": "getRequestCount",
            "outputs": [
                {
                    "internalType": "uint256",
                    "name": "",
                    "type": "uint256"
                }
            ],
            "stateMutability": "view",
            "type": "function"
        },
        {
            "inputs": [],
            "name": "requestCount",
            "outputs": [
                {
                    "internalType": "uint256",
                    "name": "",
                    "type": "uint256"
                }
            ],
            "stateMutability": "view",
            "type": "function"
        },
        {
            "inputs": [
                {
                    "internalType": "string",
                    "name": "_fileHash",
                    "type": "string"
                }
            ],
            "name": "set",
            "outputs": [],
            "stateMutability": "nonpayable",
            "type": "function"
        }
    ],
    "bytecode": "6080604052600060015534801561001557600080fd5b50610578806100256000396000f3fe6080604052600436106100555760003560e01c80631b146ecf1461005a5780633a2fa2de146101025780633fad1834146101a15780634ed3885e146101c85780635badbe4c1461027b5780636d4ce63c14610290575b600080fd5b6101006004803603602081101561007057600080fd5b81019060208101813564010000000081111561008b57600080fd5b82018360208201111561009d57600080fd5b803590602001918460018302840111640100000000831117156100bf57600080fd5b91908080601f0160208091040260200160405190810160405280939291908181526020018383808284376000920191909152509295506102a5945050505050565b005b34801561010e57600080fd5b5061012c6004803603602081101561012557600080fd5b5035610314565b6040805160208082528351818301528351919283929083019185019080838360005b8381101561016657818101518382015260200161014e565b50505050905090810190601f1680156101935780820380516001836020036101000a031916815260200191505b509250505060405180910390f35b3480156101ad57600080fd5b506101b66103ba565b60408051918252519081900360200190f35b3480156101d457600080fd5b50610100600480360360208110156101eb57600080fd5b81019060208101813564010000000081111561020657600080fd5b82018360208201111561021857600080fd5b8035906020019184600183028401116401000000008311171561023a57600080fd5b91908080601f0160208091040260200160405190810160405280939291908181526020018383808284376000920191909152509295506103c1945050505050565b34801561028757600080fd5b506101b66103fb565b34801561029c57600080fd5b5061012c610401565b600180548101908190556000805483929081106102be57fe5b9060005260206000200190805190602001906102db9291906104aa565b5060015460408051918252517f97890542421e06ad80deca7ba945fd211a48ec6d89da2510960446025b78e3249181900360200190a150565b6000818154811061032157fe5b600091825260209182902001805460408051601f60026000196101006001871615020190941693909304928301859004850281018501909152818152935090918301828280156103b25780601f10610387576101008083540402835291602001916103b2565b820191906000526020600020905b81548152906001019060200180831161039557829003601f168201915b505050505081565b6001545b90565b600180548101908190556000805483929081106103da57fe5b9060005260206000200190805190602001906103f79291906104aa565b5050565b60015481565b606060006001548154811061041257fe5b600091825260209182902001805460408051601f60026000196101006001871615020190941693909304928301859004850281018501909152818152928301828280156104a05780601f10610475576101008083540402835291602001916104a0565b820191906000526020600020905b81548152906001019060200180831161048357829003601f168201915b5050505050905090565b828054600181600116156101000203166002900490600052602060002090601f016020900481019282601f106104eb57805160ff1916838001178555610518565b82800160010185558215610518579182015b828111156105185782518255916020019190600101906104fd565b50610524929150610528565b5090565b6103be91905b80821115610524576000815560010161052e56fea26469706673582212200eb9a93e356cdb58866013350725936a3315aedfbb0f6a8f348513506014b5f464736f6c63430006090033",
    "sourcePath": "/home/emre/PrinterMarketplace/src/contracts/PrinterMarketplace.sol",
    "compiler": {
        "name": "solc",
        "version": "0.6.9+commit.3e3065ac"
    },
    "functionHashes": {
        "createRequest(string)": "1b146ecf",
        "fileHash(uint256)": "3a2fa2de",
        "get()": "6d4ce63c",
        "getRequestCount()": "3fad1834",
        "requestCount()": "5badbe4c",
        "set(string)": "4ed3885e"
    },
    "gasEstimates": {
        "creation": {
            "codeDepositCost": "280000",
            "executionCost": "5324",
            "totalCost": "285324"
        },
        "external": {
            "createRequest(string)": "infinite",
            "fileHash(uint256)": "infinite",
            "get()": "infinite",
            "getRequestCount()": "1021",
            "requestCount()": "1064",
            "set(string)": "infinite"
        }
    }
}