{
  "contractName": "PrinterMarketplace",
  "abi": [
    {
      "constant": true,
      "inputs": [],
      "name": "offerCount",
      "outputs": [
        {
          "internalType": "uint256",
          "name": "",
          "type": "uint256"
        }
      ],
      "payable": false,
      "stateMutability": "view",
      "type": "function"
    },
    {
      "constant": true,
      "inputs": [
        {
          "internalType": "uint256",
          "name": "",
          "type": "uint256"
        }
      ],
      "name": "offers",
      "outputs": [
        {
          "internalType": "uint256",
          "name": "id",
          "type": "uint256"
        },
        {
          "internalType": "uint256",
          "name": "price",
          "type": "uint256"
        },
        {
          "internalType": "string",
          "name": "fileHash",
          "type": "string"
        },
        {
          "internalType": "address payable",
          "name": "client",
          "type": "address"
        },
        {
          "internalType": "address payable",
          "name": "provider",
          "type": "address"
        },
        {
          "internalType": "bool",
          "name": "purchased",
          "type": "bool"
        }
      ],
      "payable": false,
      "stateMutability": "view",
      "type": "function"
    },
    {
      "constant": true,
      "inputs": [],
      "name": "orderCount",
      "outputs": [
        {
          "internalType": "uint256",
          "name": "",
          "type": "uint256"
        }
      ],
      "payable": false,
      "stateMutability": "view",
      "type": "function"
    },
    {
      "constant": true,
      "inputs": [
        {
          "internalType": "uint256",
          "name": "",
          "type": "uint256"
        }
      ],
      "name": "orders",
      "outputs": [
        {
          "internalType": "uint256",
          "name": "id",
          "type": "uint256"
        },
        {
          "internalType": "uint256",
          "name": "price",
          "type": "uint256"
        },
        {
          "internalType": "address payable",
          "name": "client",
          "type": "address"
        },
        {
          "internalType": "address payable",
          "name": "provider",
          "type": "address"
        },
        {
          "internalType": "bool",
          "name": "purchased",
          "type": "bool"
        },
        {
          "internalType": "string",
          "name": "fileHash",
          "type": "string"
        }
      ],
      "payable": false,
      "stateMutability": "view",
      "type": "function"
    },
    {
      "constant": true,
      "inputs": [],
      "name": "requestCount",
      "outputs": [
        {
          "internalType": "uint256",
          "name": "",
          "type": "uint256"
        }
      ],
      "payable": false,
      "stateMutability": "view",
      "type": "function"
    },
    {
      "constant": true,
      "inputs": [
        {
          "internalType": "uint256",
          "name": "",
          "type": "uint256"
        }
      ],
      "name": "requests",
      "outputs": [
        {
          "internalType": "uint256",
          "name": "id",
          "type": "uint256"
        },
        {
          "internalType": "address payable",
          "name": "client",
          "type": "address"
        },
        {
          "internalType": "string",
          "name": "fileHash",
          "type": "string"
        }
      ],
      "payable": false,
      "stateMutability": "view",
      "type": "function"
    },
    {
      "constant": false,
      "inputs": [
        {
          "internalType": "string",
          "name": "_fileHash",
          "type": "string"
        }
      ],
      "name": "setRequest",
      "outputs": [],
      "payable": false,
      "stateMutability": "nonpayable",
      "type": "function"
    },
    {
      "constant": false,
      "inputs": [
        {
          "internalType": "uint256",
          "name": "_offerPrice",
          "type": "uint256"
        },
        {
          "internalType": "string",
          "name": "_fileHash",
          "type": "string"
        },
        {
          "internalType": "address payable",
          "name": "_client",
          "type": "address"
        },
        {
          "internalType": "address payable",
          "name": "_provider",
          "type": "address"
        }
      ],
      "name": "setOffer",
      "outputs": [],
      "payable": false,
      "stateMutability": "nonpayable",
      "type": "function"
    },
    {
      "constant": false,
      "inputs": [
        {
          "internalType": "uint256",
          "name": "_id",
          "type": "uint256"
        },
        {
          "internalType": "uint256",
          "name": "_orderPrice",
          "type": "uint256"
        },
        {
          "internalType": "address payable",
          "name": "_client",
          "type": "address"
        },
        {
          "internalType": "address payable",
          "name": "_provider",
          "type": "address"
        },
        {
          "internalType": "string",
          "name": "_fileHash",
          "type": "string"
        }
      ],
      "name": "purchaseOffer",
      "outputs": [],
      "payable": true,
      "stateMutability": "payable",
      "type": "function"
    }
  ],
  "bytecode": "0x6080604052600080556000600155600060025534801561001e57600080fd5b50610f458061002e6000396000f3fe6080604052600436106100865760003560e01c806381d12c581161005957806381d12c58146101d45780638a72ea6a146102c2578063a6370d4c146103f5578063a85c38ef14610507578063b42e3fda1461063a57610086565b80631115c24d1461008b5780632453ffa8146100b657806324a3ed86146100e15780635badbe4c146101a9575b600080fd5b34801561009757600080fd5b506100a0610749565b6040518082815260200191505060405180910390f35b3480156100c257600080fd5b506100cb61074f565b6040518082815260200191505060405180910390f35b3480156100ed57600080fd5b506101a76004803603602081101561010457600080fd5b810190808035906020019064010000000081111561012157600080fd5b82018360208201111561013357600080fd5b8035906020019184600183028401116401000000008311171561015557600080fd5b91908080601f016020809104026020016040519081016040528093929190818152602001838380828437600081840152601f19601f820116905080830192505050505050509192919290505050610755565b005b3480156101b557600080fd5b506101be610821565b6040518082815260200191505060405180910390f35b3480156101e057600080fd5b5061020d600480360360208110156101f757600080fd5b8101908080359060200190929190505050610827565b604051808481526020018373ffffffffffffffffffffffffffffffffffffffff1673ffffffffffffffffffffffffffffffffffffffff16815260200180602001828103825283818151815260200191508051906020019080838360005b8381101561028557808201518184015260208101905061026a565b50505050905090810190601f1680156102b25780820380516001836020036101000a031916815260200191505b5094505050505060405180910390f35b3480156102ce57600080fd5b506102fb600480360360208110156102e557600080fd5b8101908080359060200190929190505050610909565b60405180878152602001868152602001806020018573ffffffffffffffffffffffffffffffffffffffff1673ffffffffffffffffffffffffffffffffffffffff1681526020018473ffffffffffffffffffffffffffffffffffffffff1673ffffffffffffffffffffffffffffffffffffffff16815260200183151515158152602001828103825286818151815260200191508051906020019080838360005b838110156103b557808201518184015260208101905061039a565b50505050905090810190601f1680156103e25780820380516001836020036101000a031916815260200191505b5097505050505050505060405180910390f35b34801561040157600080fd5b506105056004803603608081101561041857600080fd5b81019080803590602001909291908035906020019064010000000081111561043f57600080fd5b82018360208201111561045157600080fd5b8035906020019184600183028401116401000000008311171561047357600080fd5b91908080601f016020809104026020016040519081016040528093929190818152602001838380828437600081840152601f19601f820116905080830192505050505050509192919290803573ffffffffffffffffffffffffffffffffffffffff169060200190929190803573ffffffffffffffffffffffffffffffffffffffff169060200190929190505050610a2a565b005b34801561051357600080fd5b506105406004803603602081101561052a57600080fd5b8101908080359060200190929190505050610b97565b604051808781526020018681526020018573ffffffffffffffffffffffffffffffffffffffff1673ffffffffffffffffffffffffffffffffffffffff1681526020018473ffffffffffffffffffffffffffffffffffffffff1673ffffffffffffffffffffffffffffffffffffffff1681526020018315151515815260200180602001828103825283818151815260200191508051906020019080838360005b838110156105fa5780820151818401526020810190506105df565b50505050905090810190601f1680156106275780820380516001836020036101000a031916815260200191505b5097505050505050505060405180910390f35b610747600480360360a081101561065057600080fd5b810190808035906020019092919080359060200190929190803573ffffffffffffffffffffffffffffffffffffffff169060200190929190803573ffffffffffffffffffffffffffffffffffffffff169060200190929190803590602001906401000000008111156106c157600080fd5b8201836020820111156106d357600080fd5b803590602001918460018302840111640100000000831117156106f557600080fd5b91908080601f016020809104026020016040519081016040528093929190818152602001838380828437600081840152601f19601f820116905080830192505050505050509192919290505050610cb8565b005b60015481565b60025481565b6000808154809291906001019190505550604051806060016040528060005481526020013373ffffffffffffffffffffffffffffffffffffffff1681526020018281525060036000805481526020019081526020016000206000820151816000015560208201518160010160006101000a81548173ffffffffffffffffffffffffffffffffffffffff021916908373ffffffffffffffffffffffffffffffffffffffff160217905550604082015181600201908051906020019061081a929190610e6b565b5090505050565b60005481565b60036020528060005260406000206000915090508060000154908060010160009054906101000a900473ffffffffffffffffffffffffffffffffffffffff1690806002018054600181600116156101000203166002900480601f0160208091040260200160405190810160405280929190818152602001828054600181600116156101000203166002900480156108ff5780601f106108d4576101008083540402835291602001916108ff565b820191906000526020600020905b8154815290600101906020018083116108e257829003601f168201915b5050505050905083565b6004602052806000526040600020600091509050806000015490806001015490806002018054600181600116156101000203166002900480601f0160208091040260200160405190810160405280929190818152602001828054600181600116156101000203166002900480156109c15780601f10610996576101008083540402835291602001916109c1565b820191906000526020600020905b8154815290600101906020018083116109a457829003601f168201915b5050505050908060030160009054906101000a900473ffffffffffffffffffffffffffffffffffffffff16908060040160009054906101000a900473ffffffffffffffffffffffffffffffffffffffff16908060040160149054906101000a900460ff16905086565b6001600081548092919060010191905055506040518060c0016040528060015481526020018581526020018481526020018373ffffffffffffffffffffffffffffffffffffffff1681526020018273ffffffffffffffffffffffffffffffffffffffff1681526020016000151581525060046000600154815260200190815260200160002060008201518160000155602082015181600101556040820151816002019080519060200190610adf929190610e6b565b5060608201518160030160006101000a81548173ffffffffffffffffffffffffffffffffffffffff021916908373ffffffffffffffffffffffffffffffffffffffff16021790555060808201518160040160006101000a81548173ffffffffffffffffffffffffffffffffffffffff021916908373ffffffffffffffffffffffffffffffffffffffff16021790555060a08201518160040160146101000a81548160ff02191690831515021790555090505050505050565b60056020528060005260406000206000915090508060000154908060010154908060020160009054906101000a900473ffffffffffffffffffffffffffffffffffffffff16908060030160009054906101000a900473ffffffffffffffffffffffffffffffffffffffff16908060030160149054906101000a900460ff1690806004018054600181600116156101000203166002900480601f016020809104026020016040519081016040528092919081815260200182805460018160011615610100020316600290048015610cae5780601f10610c8357610100808354040283529160200191610cae565b820191906000526020600020905b815481529060010190602001808311610c9157829003601f168201915b5050505050905086565b6002600081548092919060010191905055506040518060c001604052808681526020018581526020018473ffffffffffffffffffffffffffffffffffffffff1681526020018373ffffffffffffffffffffffffffffffffffffffff16815260200160011515815260200182815250600560006002548152602001908152602001600020600082015181600001556020820151816001015560408201518160020160006101000a81548173ffffffffffffffffffffffffffffffffffffffff021916908373ffffffffffffffffffffffffffffffffffffffff16021790555060608201518160030160006101000a81548173ffffffffffffffffffffffffffffffffffffffff021916908373ffffffffffffffffffffffffffffffffffffffff16021790555060808201518160030160146101000a81548160ff02191690831515021790555060a0820151816004019080519060200190610e19929190610e6b565b509050508173ffffffffffffffffffffffffffffffffffffffff166108fc349081150290604051600060405180830381858888f19350505050158015610e63573d6000803e3d6000fd5b505050505050565b828054600181600116156101000203166002900490600052602060002090601f016020900481019282601f10610eac57805160ff1916838001178555610eda565b82800160010185558215610eda579182015b82811115610ed9578251825591602001919060010190610ebe565b5b509050610ee79190610eeb565b5090565b610f0d91905b80821115610f09576000816000905550600101610ef1565b5090565b9056fea265627a7a7231582018956ab9821cd2af30aa43e73db814bc7c0195fcf2e20ecb009ca2ee221e10c564736f6c63430005100032",
  "source": "// SPDX-License-Identifier: MIT\npragma solidity >=0.4.21 <0.7.0;\n\ncontract PrinterMarketplace {\n    uint256 public requestCount = 0;\n    uint256 public offerCount = 0;\n    uint256 public orderCount = 0;\n\n    mapping(uint256 => Request) public requests;\n    struct Request {\n        uint256 id;\n        address payable client;\n        string fileHash;\n    }\n    mapping(uint256 => Offer) public offers;\n    struct Offer {\n        uint256 id;\n        uint256 price;\n        string fileHash;\n        address payable client;\n        address payable provider;\n        bool purchased;\n    }\n    mapping(uint256 => Order) public orders;\n    struct Order {\n        uint256 id;\n        uint256 price;\n        address payable client;\n        address payable provider;\n        bool purchased;\n        string fileHash;\n\n    }\n\n    function setRequest(string memory _fileHash) public {\n        requestCount++;\n        requests[requestCount] = Request(requestCount, msg.sender, _fileHash);\n    }\n\n    function setOffer(uint256 _offerPrice, string memory _fileHash, address payable _client, address payable _provider) public {\n        offerCount++;\n        offers[offerCount] = Offer(\n            offerCount,\n            _offerPrice,\n            _fileHash,\n            _client,\n            _provider,\n            false\n        );\n    }\n\n    /*     function get() public view returns (string memory) {\n        return fileHash;\n    } */\n\n    function purchaseOffer(\n        uint256 _id,\n        uint256 _orderPrice,\n        address payable _client,\n        address payable _provider,\n        string memory _fileHash\n    ) public payable {\n        orderCount++;\n        //fetch the offer\n        // Order memory _order = Order(_id, _orderPrice, _owner, true);\n        orders[orderCount] = Order(_id, _orderPrice, _client, _provider, true, _fileHash);\n        //pay the seller by sendding them ether\n        address(uint160(_provider)).transfer(msg.value);\n    }\n}\n",
  "sourcePath": "/home/emre/CARDAMOM/DApp/src/contracts/PrinterMarketplace.sol",
  "compiler": {
    "name": "solc",
    "version": "0.5.16+commit.9c3226ce.Emscripten.clang"
  },
  "schemaVersion": "3.1.0",
  "updatedAt": "2020-08-13T07:47:29.533Z",
  "networkType": "ethereum",
  "devdoc": {
    "methods": {}
  },
  "userdoc": {
    "methods": {}
  }
}