{
  "contractName": "PrinterMarketplace",
  "abi": [
    {
      "constant": false,
      "inputs": [
        {
          "internalType": "string",
          "name": "_fileHash",
          "type": "string"
        }
      ],
      "name": "set",
      "outputs": [],
      "payable": false,
      "stateMutability": "nonpayable",
      "type": "function"
    },
    {
      "constant": false,
      "inputs": [
        {
          "internalType": "uint256",
          "name": "_offerPrice",
          "type": "uint256"
        }
      ],
      "name": "setOfferPrice",
      "outputs": [
        {
          "internalType": "uint256",
          "name": "",
          "type": "uint256"
        }
      ],
      "payable": false,
      "stateMutability": "nonpayable",
      "type": "function"
    },
    {
      "constant": true,
      "inputs": [],
      "name": "get",
      "outputs": [
        {
          "internalType": "string",
          "name": "",
          "type": "string"
        }
      ],
      "payable": false,
      "stateMutability": "view",
      "type": "function"
    }
  ],
  "bytecode": "0x608060405234801561001057600080fd5b5061036f806100206000396000f3fe608060405234801561001057600080fd5b50600436106100415760003560e01c80634ed3885e146100465780636d4ce63c14610101578063972973e714610184575b600080fd5b6100ff6004803603602081101561005c57600080fd5b810190808035906020019064010000000081111561007957600080fd5b82018360208201111561008b57600080fd5b803590602001918460018302840111640100000000831117156100ad57600080fd5b91908080601f016020809104026020016040519081016040528093929190818152602001838380828437600081840152601f19601f8201169050808301925050505050505091929192905050506101c6565b005b6101096101e0565b6040518080602001828103825283818151815260200191508051906020019080838360005b8381101561014957808201518184015260208101905061012e565b50505050905090810190601f1680156101765780820380516001836020036101000a031916815260200191505b509250505060405180910390f35b6101b06004803603602081101561019a57600080fd5b8101908080359060200190929190505050610282565b6040518082815260200191505060405180910390f35b80600090805190602001906101dc929190610295565b5050565b606060008054600181600116156101000203166002900480601f0160208091040260200160405190810160405280929190818152602001828054600181600116156101000203166002900480156102785780601f1061024d57610100808354040283529160200191610278565b820191906000526020600020905b81548152906001019060200180831161025b57829003601f168201915b5050505050905090565b6000816001819055506001549050919050565b828054600181600116156101000203166002900490600052602060002090601f016020900481019282601f106102d657805160ff1916838001178555610304565b82800160010185558215610304579182015b828111156103035782518255916020019190600101906102e8565b5b5090506103119190610315565b5090565b61033791905b8082111561033357600081600090555060010161031b565b5090565b9056fea265627a7a7231582046ce63aaa8c52e7eec76ea2470b3fb17b8f4d303f2ff72b6487b71d925ffb59464736f6c63430005100032",
  "source": "// SPDX-License-Identifier: MIT\npragma solidity >=0.4.21 <0.7.0;\n\ncontract PrinterMarketplace {\n    string fileHash;\n    uint offerPrice;\n\n    function set(string memory _fileHash) public {\n        fileHash = _fileHash;\n    }\n\n    function setOfferPrice(uint _offerPrice) public returns (uint) {\n        offerPrice = _offerPrice;\n        return offerPrice;\n    }\n\n    function get() public view returns (string memory) {\n        return fileHash;\n    }\n\n    //function getOfferPrice() public view returns (string memory) {\n     //   return offerPrice;\n    //}\n}\n",
  "sourcePath": "/home/emre/CARDAMOM/DApp/src/contracts/PrinterMarketplace.sol",
  "compiler": {
    "name": "solc",
    "version": "0.5.16+commit.9c3226ce.Emscripten.clang"
  },
  "schemaVersion": "3.1.0",
  "updatedAt": "2020-07-23T07:02:38.694Z",
  "networkType": "ethereum",
  "devdoc": {
    "methods": {}
  },
  "userdoc": {
    "methods": {}
  }
}